:100000000C942A000C943F000C943F000C943F0089
:100010000C943F000C943F000C943F000C943F0064
:100020000C943F000C943F000C943F000C943F0054
:100030000C943F000C943F000C943F000C943F0044
:100040000C943F000C943F000C943F000C943F0034
:100050000C943F0011241FBECFE5D8E0DEBFCDBF1A
:1000600010E0A0E6B0E0E4EDF2E002C005900D92F1
:10007000A037B107D9F70E945C010C9468010C9479
:100080000000411115C0E82FF0E0EE0FFF1FE85906
:10009000FF4F0190F081E02D208181E090E002C0CF
:1000A000880F991F6A95E2F78095822380830895CF
:1000B000E82FF0E0EE0FFF1FE859FF4F0190F081AD
:1000C000E02D208181E090E002C0880F991F6A95A1
:1000D000E2F7822B80830895E82FF0E0EE0FFF1FF8
:1000E000E05AFF4F0190F081E02D808190E002C046
:1000F000959587956A95E2F781700895E82FF0E06D
:10010000EE0FFF1FE859FF4F0190F081E02D608353
:1001100008958AB38F608ABBD4986FEF80E00E9405
:100120007E000895AF92BF92CF92DF92EF92FF923E
:100130000F931F93CF93DF93C0E0D0E0AA24A39442
:10014000B12C41E060E080E00E94410041E061E0CC
:1001500080E00E94410041E062E080E00E944100B6
:1001600041E063E080E00E94410040E06C2F80E0CD
:100170000E94410004E010E0CC24C394D12CE12C77
:10018000F12C08C08FEFE81AF80A8FEFC81AD80AC6
:100190000F5F1F4F602F80E00E946C0081114FC0E5
:1001A0009501002E02C0220F331F0A94E2F789B393
:1001B00090E082239323892BD1F3C130D105C1F084
:1001C0001CF4209741F03BC0C230D105F1F0C330A0
:1001D000D10541F134C0C701E114F104E1F18130EE
:1001E0009105D9F182309105D1F1039741F539C0DC
:1001F000C701E114F104B9F181309105B1F1823008
:100200009105A9F10397D9F434C0C701E114F104B1
:1002100091F18130910589F18230910581F1039747
:1002200071F42FC0C701E114F10469F18130910527
:1002300061F18230910559F1039769F52AC084E094
:10024000C816D1040CF49ECF2196C430D10509F014
:1002500078CF81E426C087E024C088E022C089E00E
:1002600020C08FE21EC084E01CC085E01AC086E07A
:1002700018C08AE216C081E014C082E012C083E098
:1002800010C08DE20EC08FE30CC080E30AC08DE386
:1002900008C08BE206C084E0C816D1040CF472CF0B
:1002A00081E4DF91CF911F910F91FF90EF90DF904C
:1002B000CF90BF90AF9008950E94890084B38F6063
:1002C00084BB15BA0E9492008134E1F385BBFACF5A
:0402D000F894FFCFD0
:1002D40039003600330030003B003800350032006E
:00000001FF
