S0180000696E74657272757074414E446C6564732E73726563A4
S11300000C942A000C9436000C9450000C946A0052
S11300100C9434000C9434000C9434000C9434008C
S11300200C9434000C9434000C9434000C9434007C
S11300300C9434000C9434000C9434000C9434006C
S11300400C9434000C9434000C9434000C9434005C
S11300500C94340011241FBECFE5D8E0DEBFCDBF21
S11300600E9484000C94A4000C9400001F920F9230
S11300700FB60F9211242F938F939F93D89A2FE347
S11300808DE093E0215080409040E1F700C00000F3
S11300909F918F912F910F900FBE0F901F901895E5
S11300A01F920F920FB60F9211242F938F939F9349
S11300B0D99A2FE38DE093E0215080409040E1F7FE
S11300C000C000009F918F912F910F900FBE0F9051
S11300D01F9018951F920F920FB60F9211242F9311
S11300E08F939F93DA9A2FE38DE093E02150804021
S11300F09040E1F700C000009F918F912F910F90E5
S11301000FBE0F901F901895F8948AB387608ABB2E
S1130110BA9885B78D6085BF85B78D7F85BF84B755
S11301208F7784BFD09A8BB7806E8BBF78948BB354
S1130130887F8BBB2FE78AE196E021508040904076
S10F0140E1F700C00000F3CFF894FFCFFB
S9030000FC
